:100000000C9420050C9451050C9451050C94510549
:100010000C9451050C9451050C9451050C94510508
:100020000C9451050C9451050C9451050C945105F8
:100030000C9451050C9451050C9451050C945105E8
:100040000C9451050C9451050C9451050C945105D8
:100050000C9451050C9451050C9451050C94684274
:100060000C9451050C94FC240C94D2240C9451054E
:100070000C9451050C9451050C9451050C945105A8
:100080000C9451050C9451050C9451050C94510598
:100090000C94A8240C947E240C9451050C942625D1
:1000A0000C9451050C9451050C9451050C94510578
:1000B0000C9451050C9451050C9451050C94510568
:1000C0000C9451050C9451050C9451050C94510558
:1000D0000C9451050C9451050C9451050C94510548
:1000E0000C945105DE2FE32FE82FF22FFC2F7530F3
:1000F00006300E30163020302A30343043304D3048
:100100007530573061306B308C418F417E41824178
:100110008841C641934197419D41A141A541AB41D1
:10012000AF41B341C641B941BD41C1410763423608
:10013000B79BD8A71A39685618AEBAAB558C1D3C78
:10014000B7CC5763BD6DEDFD753EF6177231BF003C
:100150000000803F08000000BE922449123EABAA76
:10016000AA2ABECDCCCC4C3E00000080BEABAAAAD1
:10017000AA3E00000000BF000000803F0000000019
:1001800000084178D3BB4387D1133D190E3CC3BD52
:100190004282AD2B3E68EC8276BED98FE1A93E4CFF
:1001A00080EFFFBE01C4FF7F3F00000000000C9401
:1001B00086120C9471230C9493410C94A43E0C94DD
:1001C000FC1B0C94331C0C94F8220C94DE2F0C9422
:1001D000103A0C94C6410C94E32F0C94031C0C941D
:1001E00034300C9475300C9419380C94C4340C943D
:1001F000B03E0C94FC2F0C9488410C94EE220C948D
:10020000E82F0C94B3410C9443300C94C1410C94EE
:100210008F410C947C240C94101B0C94F22F0C94A2
:10022000B11B0C941B240C94D9170C947E410C9494
:1002300085230C94001B0C942C1B0C94D4230C943D
:100240004D1B0C94B73E0C9482410C94A1410C942C
:1002500020300C94BD410C94B4330C942A300C948F
:10026000DE320C9457300C947D560C94BB330C94B6
:10027000631B0C94EE110C94983E0C94B9410C94B1
:10028000AE130C9406300C947E350C94011B0C9428
:10029000241B0C940E300C94EB1C0C94A5410C9474
:1002A000883E0C9467580C949D410C94811B0C94CF
:1002B0008C410C941F410C94E01B0C946B300C94FB
:1002C00097410C94B7330C94B83E0C94193D0C94A0
:1002D000B5370C9461300C947B370C94AF410C947F
:1002E00093230C9421350C94873E0C9455140C9454
:1002F000AB410C94D82B0C94BA3C0C944D300C941C
:10030000C8120C94163000407A10F35A00A0724EB6
:1003100018090010A5D4E80000E87648170000E4AA
:100320000B54020000CA9A3B000000E1F5050000F2
:1003300080969800000040420F000000A086010057
:100340000000102700000000E80300000000640027
:10035000000000000A000000000001000000000092
:100360002C76D888DC674F0823DFC1DFAE59E1B1B6
:10037000B796E5E3E453C63AE651997696E8E6C2C5
:100380008426EB898C9B62ED407C6FFCEFBC9C9FCC
:1003900040F2BAA56FA5F490055A2AF75C936B6CEE
:1003A000F9676DC11BFCE0E40D47FEF520E6B500E2
:1003B000D0ED902E0300943577050080841E080050
:1003C00000204E0A000000C80C333333330F986E00
:1003D00012831141EF8D2114893BE65516CFFEE6BD
:1003E000DB18D1844B381BF77C1D901DA4BBE42483
:1003F000203284725E228100C9F124ECA1E53D2700
:100400007C3C3E5E2B3D3F2F5B5D3B2C2A225C00FB
:10041000000020002300260029002C002F003200BD
:100420000001000003010601090100000A0B020996
:100430000C0D0E080703040100000000000000007E
:1004400000000000000000000000000000000000AC
:100450000000000000001211100000000000000069
:10046000000000000000000000000000000000008C
:1004700001021020200808102040102040800201B6
:10048000020108040201010204081020408080409B
:10049000201008040201800402018040201008049A
:1004A0000201080402010102040810204080010238
:1004B00004081020408000002200250028002B00A6
:1004C0002E003100340002010000050108010B017B
:1004D00005050505070508080808020202020A0AC0
:1004E00008080404040401010101010101010303DE
:1004F000030303030303040707070C0C0C0C0C0C89
:100500000C0C0202020206060606060606060B0B85
:100510000B0B0B0B0B0B00000000003E5B4F5B3E18
:100520003E6B4F6B3E1C3E7C3E1C183C7E3C181CB8
:10053000577D571C1C5E7F5E1C00183C1800FFE7AF
:10054000C3E7FF0018241800FFE7DBE7FF30483A55
:10055000060E2629792926407F050507407F0525B7
:100560003F5A3CE73C5A7F3E1C1C08081C1C3E7F3F
:1005700014227F22145F5F005F5F06097F017F0006
:100580006689956A606060606094A2FFA294080426
:100590007E040810207E201008082A1C08081C2A47
:1005A00008081E101010100C1E0C1E0C30383E389F
:1005B00030060E3E0E06000000000000005F000046
:1005C0000007000700147F147F14242A7F2A1223B7
:1005D0001308646236495620500008070300001CC7
:1005E0002241000041221C002A1C7F1C2A08083ED0
:1005F00008080080703000080808080800006060E3
:100600000020100804023E5149453E00427F400050
:1006100072494949462141494D331814127F102728
:10062000454545393C4A4949314121110907364977
:10063000494936464949291E00001400000040344B
:100640000000000814224114141414140041221450
:100650000802015909063E415D594E7C1211127C77
:100660007F494949363E414141227F4141413E7FD8
:10067000494949417F090909013E414151737F08B8
:1006800008087F00417F41002040413F017F08145E
:1006900022417F404040407F021C027F7F040810BF
:1006A0007F3E4141413E7F090909063E4151215E9D
:1006B0007F09192946264949493203017F01033F31
:1006C0004040403F1F2040201F3F4038403F6314C0
:1006D00008146303047804036159494D43007F41C2
:1006E00041410204081020004141417F04020102FF
:1006F0000440404040400003070800205454784024
:100700007F284444383844444428384444287F38B7
:100710005454541800087E090218A4A49C787F0839
:1007200004047800447D40002040403D007F1028B4
:10073000440000417F40007C047804787C08040475
:10074000783844444438FC1824241818242418FC0D
:100750007C08040408485454542404043F44243CB2
:100760004040207C1C2040201C3C4030403C442821
:100770001028444C9090907C4464544C44000836BB
:100780004100000077000000413608000201020429
:10079000023C2623263C1EA1A161123A4040207A49
:1007A0003854545559215555794122545478422191
:1007B0005554784020545579400C1E5272123955C8
:1007C00055555939545454593955545458000045C5
:1007D0007C410002457D420001457C407D121112A2
:1007E0007DF0282528F07C545545002054547C5435
:1007F0007C0A097F4932494949323A4444443A32F1
:100800004A4848303A4141217A3A42402078009D96
:10081000A0A07D3D4242423D3D4040403D3C24FF42
:100820002424487E4943662B2FFC2F2BFF0929F6F1
:1008300020C0887E090320545479410000447D4142
:100840003048484A32384040227A007A0A0A727D9B
:100850000D19317D2629292F2826292929263048B6
:100860004D4020380808080808080808382F10C824
:10087000ACBA2F102834FA00007B000008142A14A8
:100880002222142A14085500550055AA55AA55AA23
:10089000FF55FF55FF000000FF00101010FF00146F
:1008A0001414FF001010FF00FF1010F010F01414CB
:1008B00014FC001414F700FF0000FF00FF1414F4F0
:1008C00004FC141417101F10101F101F1414141FF1
:1008D00000101010F0000000001F101010101F106A
:1008E000101010F010000000FF1010101010101069
:1008F0001010FF10000000FF140000FF00FF0000B8
:100900001F10170000FC04F414141710171414F42B
:1009100004F40000FF00F714141414141414F70066
:10092000F7141414171410101F101F141414F414B7
:100930001010F010F000001F101F0000001F140026
:100940000000FC140000F010F01010FF10FF141451
:1009500014FF141010101F00000000F010FFFFFF24
:10096000FFFFF0F0F0F0F0FFFFFF0000000000FFDD
:10097000FF0F0F0F0F0F3844443844FC4A4A4A34E3
:100980007E02020606027E027E02635549416338FA
:1009900044443C04407E201E2006027E020299A5AB
:1009A000E7A5991C2A492A1C4C7201724C304A4D09
:1009B0004D303048784830BC625A463D3E4949493E
:1009C000007E0101017E2A2A2A2A2A44445F4444E7
:1009D00040514A444040444A51400000FF0103E076
:1009E00080FF000008086B6B083612362436060FAD
:1009F000090F06000018180000001010003040FF1A
:100A00000101001F01011E00191D1712003C3C3C92
:100A10003C00000000001F1C1F1E1F1E1F1F1E1F6A
:100A20001E1F00002100240027002A002D00300096
:100A3000330001010000040107010A017D566758D7
:100A400011241FBECFEFD1E2DEBFCDBF00E00CBF4F
:100A500015E0A0E0B2E0E0EFF4EC00E00BBF02C074
:100A600007900D92A437B107D9F72DE0A4E7B5E0C0
:100A700001C01D92A730B207E1F715E0CFE1D5E044
:100A800000E006C021970109802FFE010E94EF5F60
:100A9000CE31D10780E00807A9F70E9457450C9492
:100AA00066620C9400002F923F924F925F926F9279
:100AB0007F928F929F92AF92BF92CF92DF92EF92EE
:100AC000FF920F931F93CF93DF93CDB7DEB72C9791
:100AD0000FB6F894DEBF0FBECDBF8091DC0C87FD52
:100AE00008C061E00E94C74160E08091DC0C0E9478
:100AF000892F61E08091DB0C0E94C74161E0809109
:100B0000DA0C0E94C7418091DA0C082E000C990B78
:100B1000FC01E053FB4FE491F0E0EE0FFF1FEA54BD
:100B2000FB4F259134913093E70C2093E60CFC01A8
:100B3000E059FB4FE4918E2F90E0A0E0B0E080936D
:100B4000F00C9093F10CA093F20CB093F30C809105
:100B5000DB0C082E000C990BFC01E053FB4FE491D9
:100B6000F0E0EE0FFF1FEA54FB4F259134913093D4
:100B7000E50C2093E40CFC01E059FB4FE4918E2F2F
:100B800090E0A0E0B0E08093F40C9093F50CA0937B
:100B9000F60CB093F70C8091DF0C8F3F19F40E9494
:100BA000222365C061E00E94C74161E08091DD0CB5
:100BB0000E94C74160E08091DE0C0E94C741809195
:100BC000DF0C082E000C990BFC01E053FB4FE49165
:100BD000F0E0EE0FFF1FEA54FB4FA591B491B093E4
:100BE000E30CA093E20CFC01E059FB4F9491492FD8
:100BF00050E060E070E04093EC0C5093ED0C60939B
:100C0000EE0C7093EF0CE091DD0C4E2FEE0F550BB8
:100C1000FA01E053FB4F8491E82FF0E0EE0FFF1F45
:100C2000EA54FB4F259134913093E10C2093E00C72
:100C3000FA01E059FB4FE4914E2F50E060E070E084
:100C40004093E80C5093E90C6093EA0C7093EB0C22
:100C50008C91E92FE095E823EC93E091E00CF09182
:100C6000E10C90818091E80C8095892380838091AC
:100C7000DC0C87FD1FC061E00E94892F64E670E0F4
:100C800080E090E00E94224260E08091DC0C0E94B3
:100C9000892F64E670E080E090E00E94224261E0EB
:100CA0008091DC0C0E94892F66E970E080E090E082
:100CB0000E94224261E08FEB9CE00E9437346AE0A0
:100CC00070E080E090E00E94224269EB8FEB9CE0B4
:100CD0000E9437346FEF8FEB9CE00E94FA3363E899
:100CE0008FEB9CE00E94FA3367E58FEB9CE00E945B
:100CF000FA336CE271E080E090E00E94224263EB04
:100D00008FEB9CE00E94373460E88FEB9CE00E9400
:100D1000FA3360E08FEB9CE00E94FA3366E08FEBE1
:100D20009CE00E94FA3366E08FEB9CE00E94FA336D
:100D300066EB8FEB9CE00E94373465E28FEB9CE022
:100D40000E94FA3360EB8FEB9CE00E94373468E638
:100D50008FEB9CE00E94FA336CEC8FEB9CE00E94DE
:100D6000373465E08FEB9CE00E94FA3361EB8FEB48
:100D70009CE00E94373460E08FEB9CE00E94FA33E5
:100D800065E18FEB9CE00E94FA336CE18FEB9CE015
:100D90000E94FA336CE18FEB9CE00E94FA3363E827
:100DA0008FEB9CE00E94FA336AEA8FEB9CE00E9492
:100DB000FA3360EC8FEB9CE00E94373460E58FEBF8
:100DC0009CE00E94FA3360E58FEB9CE00E94FA33CE
:100DD00061E08FEB9CE00E94FA336CE38FEB9CE0C8
:100DE0000E94FA336EE18FEB9CE00E94FA3368E0D8
:100DF0008FEB9CE00E94FA3364EB8FEB9CE00E9447
:100E0000373462E08FEB9CE00E94FA3360E48FEBB2
:100E10009CE00E94FA3360E08FEB9CE00E94FA3382
:100E20006AE28FEB9CE00E94FA336AE28FEB9CE06F
:100E30000E94FA336DE08FEB9CE00E94FA3368E782
:100E40008FEB9CE00E94FA3360EE8FEB9CE00E94F7
:100E5000373462E08FEB9CE00E94FA336AE08FEB5C
:100E60009CE00E94FA3361E18FEB9CE00E94FA3330
:100E70006DE18FEB9CE00E94FA3363E28FEB9CE024
:100E80000E94FA3365E38FEB9CE00E94FA3361E441
:100E90008FEB9CE00E94FA336BE48FEB9CE00E94A6
:100EA000FA336BE48FEB9CE00E94FA3362E48FEB41
:100EB0009CE00E94FA336AE38FEB9CE00E94FA33D5
:100EC00067E28FEB9CE00E94FA336BE18FEB9CE0D2
:100ED0000E94FA3368E08FEB9CE00E94FA3369E0ED
:100EE0008FEB9CE00E94FA3363E08FEB9CE00E9462
:100EF000FA3362E08FEB9CE00E94FA336AE08FEBFA
:100F00009CE00E94FA3361E18FEB9CE00E94FA338F
:100F10006DE18FEB9CE00E94FA3363E28FEB9CE083
:100F20000E94FA3365E38FEB9CE00E94FA3361E4A0
:100F30008FEB9CE00E94FA336BE48FEB9CE00E9405
:100F4000FA336BE48FEB9CE00E94FA3362E48FEBA0
:100F50009CE00E94FA336AE38FEB9CE00E94FA3334
:100F600067E28FEB9CE00E94FA336BE18FEB9CE031
:100F70000E94FA3368E08FEB9CE00E94FA3369E04C
:100F80008FEB9CE00E94FA3363E08FEB9CE00E94C1
:100F9000FA3360E08FEB9CE00E94FA3361E08FEB64
:100FA0009CE00E94FA336AE38FEB9CE00E943734A6
:100FB00065E58FEB9CE00E94FA3366E38FEB9CE0E3
:100FC0000E94373460EC8FEB9CE00E94FA3365E3BB
:100FD0008FEB9CE00E94373460E08FEB9CE00E9436
:100FE000FA3364E48FEB9CE00E94373460E08FEBCF
:100FF0009CE00E94FA3362E08FEB9CE00E94FA339F
:1010000061E18FEB9CE00E94373466E970E080E09C
:1010100090E00E94224269E28FEB9CE00E9437340C
:1010200062E370E080E090E00E94224282E08093E0
:10103000D30C61E08FEB9CE00E94031C61E070E048
:101040008FEB9CE00E94631B0FEE1BE720EE31E06C
:1010500047E250E060E070E08FEB9CE00E94C43417
:1010600020EE31E046E250E060E070E08FEB9CE083
:101070000E94C43480EE97E09093D20C8093D10C00
:101080009093D00C8093CF0C61ED73E0CE0101966C
:101090000E94C54383E290E00E940B603C0140E067
:1010A000BE016F5F7F4F0E94BF387092B50760929C
:1010B000B407CE0101960E94874368ED73E0CE012C
:1010C00001960E94C54383E290E00E940B603C01C0
:1010D00041E0BE016F5F7F4F0E94BF387092B7073B
:1010E0006092B607CE0101960E94874363E575E0E2
:1010F000CE0101960E94C54383E290E00E940B60FE
:101100003C0142E0BE016F5F7F4F0E94BF3870928A
:10111000B9076092B807CE0101960E9487436DED32
:1011200073E0CE0101960E94C54383E290E00E94E5
:101130000B603C0143E0BE016F5F7F4F0E94BF38F0
:101140007092BB076092BA07CE0101960E94874356
:1011500067EE73E0CE0101960E94C54383E290E002
:101160000E940B603C0144E0BE016F5F7F4F0E9414
:10117000BF387092BD076092BC07CE0101960E94F5
:10118000874362EF73E0CE0101960E94C54383E27C
:1011900090E00E940B603C0145E0BE016F5F7F4F15
:1011A0000E94BF387092BF076092BE07CE010196C1
:1011B0000E9487436DEF73E0CE0101960E94C54304
:1011C00083E290E00E940B603C0146E0BE016F5F4D
:1011D0007F4F0E94BF387092C1076092C007CE0156
:1011E00001960E94874388E390E00E940B602C01E7
:1011F00077247A947F928EEF682E6F9288248A9457
:10120000982C24E0A22E38E0C32ED12C46E0E42E08
:10121000F12C00E023E047E060E0C2010E947D186D
:101220005092B7064092B60666E273E0CE01019690
:101230000E94C5438FE190E00E940B602C015EEF9D
:10124000852E99249A94AA24AA94BA2C72E0C72EC7
:10125000E8E0EE2EF12C06E910E09E012F5F3F4FF3
:1012600047E060E00E9451195092EF054092EE0570
:10127000CE0101960E94874366E074E0CE01079696
:101280000E94C5436AE074E0CE0101960E94C54306
:1012900088E690E00E940B602C01F0E38F2E912CE9
:1012A000ACE8AA2EB12CCC24C394E12CF12C8E01F5
:1012B0000F5F1F4F9E01295F3F4F40E060E00E949B
:1012C000D3195092BF064092BE06C8010E948743C0
:1012D000CE0107960E9487436DE074E0C8010E942A
:1012E000C5438FE190E00E940B602C01BEEF8B2E76
:1012F00099249A94AA24AA94BA2C02E0C02E80E3DE
:10130000E82EF12C01EE10E09E012F5F3F4F40E0F0
:1013100061E0C2010E9451195092F1054092F0051E
:10132000CE0101960E94874388E390E00E940B6003
:101330002C017F926F9288248A94982C22E0A22E0E
:1013400030E3C32ED12C45E9E42EFF24F39400E0D2
:1013500022E040E061E0C2010E947D185092B9068F
:101360004092B80666E174E0CE0101960E94C54342
:101370008AE290E00E940B601C011F9288E58F9327
:101380001F925CE8452E4F9262E0862E70E3A72EF6
:10139000B12CEAEACE2ED12CE12C01E010E09E0126
:1013A0002F5F3F4F41E061E0C1010E942A39309236
:1013B000C1062092C006CE0101960E9487436CE1CF
:1013C00074E0CE0101960E94C5438FE190E00E9437
:1013D0000B601C01FEEF8F2E99249A94AA24AA94E4
:1013E000BA2CB2E0CB2E18E5E12EF12C0CE810E07F
:1013F0009E012F5F3F4F42E062E00E945119309200
:10140000F3052092F205CE0101960E94874366E221
:1014100074E0CE0101960E94C5438AE290E00E94EA
:101420000B601C011F9200E8502E5F921F924F929A
:1014300082E0882E98E5A92EB12C24E0C22EDD246E
:10144000D394E12C03E010E09E012F5F3F4F42E078
:1014500066E0C1010E942A393092CB062092CA066A
:10146000CE0101960E94874368E274E0CE010196A6
:101470000E94C5438AE290E00E940B601C011F920B
:101480005F92552453945F9282E28F9338E6C32E85
:10149000DD24D3949E012F5F3F4F42E067E0C101FE
:1014A0000E942A393092CD062092CC06CE010196B8
:1014B0000E94874366E074E0CE0107960E94C54310
:1014C0006AE074E0CE0101960E94C54388E690E090
:1014D0000E940B601C0140E3842E912C5CE8A52E39
:1014E000B12CC12CE12CF12C8E010F5F1F4F9E01FE
:1014F000295F3F4F42E062E00E94D3193092C30659
:101500002092C206C8010E948743CE0107960E941E
:1015100087436AE274E0C8010E94C5438FE190E00E
:101520000E940B601C016EEF862E99249A94AA24C7
:10153000AA94BA2CE2E0CE2EF0E8EF2EF12C0CE8C3
:1015400010E09E012F5F3F4F42E063E00E9451197F
:101550003092F5052092F405CE0101960E94874352
:1015600066E274E0CE0101960E94C5438AE290E0F3
:101570000E940B601C017F926F927F927F92A2E08B
:101580008A2EB0E8AB2EB12C10E1C12EDD24D3940D
:10159000EE24E39403E010E09E012F5F3F4F42E012
:1015A00065E00E942A393092C9062092C806CE0111
:1015B00001960E94874365E374E0CE0101960E9484
:1015C000C5438FE190E00E940B601C010EEF802E5E
:1015D00099249A94AA24AA94BA2C92E0C92E28EAB3
:1015E000E22EF12C0CE810E09E012F5F3F4F42E00D
:1015F00064E0C1010E9451193092F7052092F6056E
:10160000CE0101960E94874366E274E0CE01019606
:101610000E94C5438AE290E00E940B601C017F9209
:101620006F927F927F9234E0832E48EAA42EB12CF1
:1016300058ECC52ED12CEE24E39403E010E09E017B
:101640002F5F3F4F42E063E00E942A393092C50687
:101650002092C406CE0101960E94874368E274E09E
:10166000CE0101960E94C5438AE290E00E940B6081
:101670001C017F926F927F927F926CE2C62EDD24D6
:10168000D3949E012F5F3F4F42E064E00E942A39CD
:101690003092C7062092C606CE0101960E9487436B
:1016A0006AE374E0CE0101960E94C5438AE290E0AD
:1016B0000E940B601C011F9270ED472E4F925F92AB
:1016C00084E08F93E8E5AE2EB12CF4E0CF2EDD243C
:1016D000D39401E010E09E012F5F3F4F44E068E0AB
:1016E000C1010E942A393092CF062092CE060FB651
:1016F000F894DEBF0FBECDBFCE0101960E94874396
:101700006AE374E0CE0101960E94C5438AE290E04C
:101710000E940B601C011F924F925F9280E78F9393
:10172000A0E7CA2EDD24D3949E012F5F3F4F44E0F3
:1017300069E0C1010E942A393092D1062092D00678
:10174000CE0101960E9487436AE374E0CE010196C0
:101750000E94C5438AE290E00E940B602C017F92B8
:101760006F927F927F92B0E8AB2EB12C88E2C82EA8
:10177000DD24D3949E012F5F3F4F44E06AE0C20115
:101780000E942A395092D3064092D206CE01019689
:101790000E9487436AE374E0CE0101960E94C5432C
:1017A0008AE290E00E940B602C017F926F927F9200
:1017B0007F9292E0892E28EAA22EB12C30E4C32E2B
:1017C000DD24D394E12C9E012F5F3F4F44E06BE07A
:1017D000C2010E942A395092D5064092D406CE0109
:1017E00001960E94874362E873E0CE0101960E9451
:1017F000C5438AE290E00E940B602C017F926F92B9
:101800007F927F9240EDA42EB12C58ECC52ED12CA6
:101810009E012F5F3F4F44E06CE00E942A395092B6
:10182000D7064092D606CE0101960E94874362E811
:1018300073E0CE0101960E94C5438AE290E00E94C7
:101840000B602C017F926F927F927F9268EFA62EA1
:10185000B12C74EDC72ED12C9E012F5F3F4F44E079
:101860006DE00E942A395092D9064092D806CE01E6
:1018700001960E9487436CE374E0CE0101960E94BA
:10188000C5438FE190E00E940B602C01E0ED8E2EAD
:10189000912CFCE8AF2EB12CA2E0CA2EB8E5EB2EBD
:1018A000F12C0CE810E09E012F5F3F4F44E065E013
:1018B0000E9451195092F9054092F805CE01019607
:1018C0000E94874366E474E0CE0101960E94C543FE
:1018D0008FE190E00E940B602C011CE4A12EBB2440
:1018E000B3940CE411E09E012F5F3F4F44E066E0AB
:1018F0000E9451195092FB054092FA05CE010196C3
:101900000E94874369E474E0CE0101960E94C543BA
:101910008FE190E00E940B602C010EEF802E992445
:101920009A94AA24AA94BA2C90E8E92EF12C0CE8F7
:1019300010E09E012F5F3F4F44E068E0C2010E942B
:1019400051195092FF054092FE05CE0101960E946A
:10195000874366E574E0CE0101960E94C5438FE19E
:1019600090E00E940B602C0128EAE22EF12C9E01EF
:101970002F5F3F4F44E067E00E9451195092FD05F0
:101980004092FC05CE0101960E94874365E674E013
:10199000CE0101960E94C5438FE190E00E940B604A
:1019A0002C0130EDE32EF12C9E012F5F3F4F44E0E0
:1019B00069E00E9451195092010640920006CE0142
:1019C00001960E9487436AE674E0CE0101960E9468
:1019D000C5438FE190E00E940B602C0148EFE42E9C
:1019E000F12C9E012F5F3F4F44E06AE00E945119A5
:1019F0005092030640920206CE0101960E94874350
:101A000066E074E0CE0107960E94C5436AE074E088
:101A1000CE0101960E94C54388E690E00E940B60CB
:101A20002C0150E3852E912C6CE8A62EB12CC12CF4
:101A3000E12CF12C8E010F5F1F4F9E01295F3F4F5C
:101A400043E061E10E94D3195092E1064092E00622
:101A5000C8010E948743CE0107960E94874360E732
:101A600074E0C8010E94C5438FE190E00E940B60C2
:101A70002C017EEF872E99249A94AA24AA94BA2C3A
:101A8000F2E0CF2EA8E5EA2EF12C0CE810E09E0142
:101A90002F5F3F4F43E062E10E94511950921306BD
:101AA00040921206CE0101960E9487436DE774E0D2
:101AB000CE0101960E94C5438FE190E00E940B6029
:101AC0002C0102E211E09E012F5F3F4F43E063E1F2
:101AD0000E9451195092150640921406CE010196AB
:101AE0000E94874363E575E0CE0101960E94C543DD
:101AF0008FE190E00E940B602C01B0E8EB2EF12CFE
:101B00000CE810E09E012F5F3F4F43E064E10E942C
:101B100051195092170640921606CE0101960E9466
:101B200087436AE874E0CE0101960E94C5438AE2C9
:101B300090E00E940B602C017F926F927F927F92C7
:101B400014E0812E00E8A02EB12C84EDC82ED12CFB
:101B5000EE24E39400E010E09E012F5F3F4F43E04E
:101B60006FE0C2010E942A395092DD064092DC06E5
:101B7000CE0101960E94874363E974E0CE0101968D
:101B80000E94C5438FE190E00E940B602C019EEF04
:101B9000892E99249A94AA24AA94BA2C32E0C32EAE
:101BA00048EAE42EF12C0CE810E09E012F5F3F4F35
:101BB00043E065E1C2010E9451195092190640921A
:101BC0001806CE0101960E94874368E174E0CE01B9
:101BD00001960E94C5438AE290E00E940B602C01AE
:101BE0007F926F927F927F9254E0852E68EAA62EB4
:101BF000B12C78E2C72EDD24D394EE24E39401E0E7
:101C000010E09E012F5F3F4F43E06FE00E942A39B2
:101C10005092DB064092DA06CE0101960E9487437D
:101C200060EA74E0CE0101960E94C5438FE190E026
:101C30000E940B602C01EEEF8E2E99249A94AA2418
:101C4000AA94BA2CA2E0CA2EB0EDEB2EF12C0CE82F
:101C500010E09E012F5F3F4F43E066E10E94511963
:101C600050921B0640921A06CE0101960E948743AD
:101C700062E873E0CE0101960E94C5438AE290E0DB
:101C80000E940B602C017F926F927F927F9214E0F2
:101C9000812E00EDA02EB12C8CE1C82EDD24D39432
:101CA000EE24E39400E010E09E012F5F3F4F43E0FD
:101CB00060E1C2010E942A395092DF064092DE069E
:101CC0000FB6F894DEBF0FBECDBFCE0101960E94C5
:101CD000874362E373E0CE0101960E94C5438AE226
:101CE00090E00E940B602C017F926F927F927F9216
:101CF00092E0892E28EFA22EB12C3CE8C32ED12CE5
:101D0000E12C9E012F5F3F4F43E062E1C2010E9440
:101D10002A395092E3064092E206CE0101960E94D3
:101D2000874362E373E0CE0101960E94C5438AE2D5
:101D300090E00E940B602C017F926F927F927F92C5
:101D400044E0842E50E4C52EDD24D394EE24E394A5
:101D50009E012F5F3F4F43E063E10E942A3950927A
:101D6000E5064092E406CE0101960E9487436CEAA4
:101D700074E0CE0101960E94C5438FE190E00E947D
:101D80000B602C016EEF862E99249A94AA24AA94B3
:101D9000BA2CE2E0CE2EF0E2EF2EFF24F3940CE812
:101DA00010E09E012F5F3F4F43E068E10E94511910
:101DB00050921F0640921E06CE0101960E94874354
:101DC0006AEB74E0CE0107960E94C5436DEB74E0A8
:101DD000CE0101960E94C54388E690E00E940B6008
:101DE0002C01A0E28A2E99249394B4E3AB2EBB2459
:101DF000B394CC24C394E12CF12C8E010F5F1F4FC0
:101E00009E01295F3F4F43E068E10E94D319509241
:101E1000EF064092EE06C8010E948743CE01079666
:101E20000E94874362E373E0C8010E94C5438AE2CF
:101E300090E00E940B602C011F9288EF8F931F92FD
:101E400080EB8F9312E0812E08E5A02EB12C80EB61
:101E5000C82ED12C02E010E09E012F5F3F4F45E0DD
:101E600064E1C2010E942A395092E7064092E606D8
:101E7000CE0101960E94874361EC74E0CE01019689
:101E80000E94C5438FE190E00E940B602C0198EF07
:101E9000892E912C2CE8A22EB12C32E0C32E48E5DD
:101EA000E42EF12C0CE810E09E012F5F3F4F45E03F
:101EB0006BE0C2010E94511950920506409204063F
:101EC000CE0101960E94874364EC74E0CE01019636
:101ED0000E94C5438FE190E00E940B602C015EEFF1
:101EE000852E99249A94AA24AA94BA2C70E8E72EF5
:101EF000F12C9E012F5F3F4F45E06CE00E9451198D
:101F00005092070640920606CE0101960E94874332
:101F100069EC74E0CE0101960E94C5438FE190E028
:101F20000E940B602C0108EC10E09E012F5F3F4FD8
:101F300045E06DE00E945119509209064092080652
:101F4000CE0101960E9487436DEC74E0CE010196AC
:101F50000E94C5438FE190E00E940B602C0104E0D9
:101F600011E09E012F5F3F4F45E06EE00E94511946
:101F700050920B0640920A06CE0101960E948743BA
:101F800061ED74E0CE0101960E94C5438FE190E0BF
:101F90000E940B602C0100E411E09E012F5F3F4F77
:101FA00045E06FE00E94511950920D0640920C06D8
:101FB000CE0101960E94874366ED74E0CE01019642
:101FC0000E94C5438FE190E00E940B602C010CE75A
:101FD00011E09E012F5F3F4F45E060E10E945119E3
:101FE00050920F0640920E06CE0101960E94874342
:101FF00066E074E0CE0107960E94C5436AE074E093
:10200000CE0101960E94C54388E690E00E940B60D5
:102010002C01E0ED8E2E912CF0E4AF2EBB24B39476
:10202000C12CE12CF12C8E010F5F1F4F9E01295F07
:102030003F4F45E065E10E94D3195092E906409276
:10204000E806C8010E948743CE0107960E94874395
:102050006CED74E0C8010E94C5438FE190E00E94DE
:102060000B602C01AEEF8A2E99249A94AA24AA948C
:10207000BA2C12E0C12E00EDE02EF12C0CE810E09D
:102080009E012F5F3F4F45E061E10E945119509240
:10209000110640921006CE0101960E948743E091FE
:1020A000C006F091C10686E696E6A6E6BFE382A3E7
:1020B00093A3A4A3B5A388E390E00E940B602C0136
:1020C0007F926F9288248A94982C94E0A92E28E518
:1020D000C22ED12C34E0E32EFF24F39401E021E062
:1020E00046E062E0C2010E947D185092BB06409219
:1020F000BA0688E390E00E940B602C017F926F92F9
:1021000040E8C42ED12C21E046E063E00E947D1817
:102110005092BD064092BC0668E174E0CE01019683
:102120000E94C5438AE290E00E940B602C017F92DE
:102130006F927F927F9254E0852E60EDA62EB12C97
:1021400070E1C72EDD24D394EE24E39400E010E088
:102150009E012F5F3F4F46E066E10E942A39509270
:10216000EB064092EA06CE0101960E94874368EE94
:1021700074E0CE0101960E94C5438FE190E00E9479
:102180000B602C01EEEF8E2E99249A94AA24AA9427
:10219000BA2CA2E0CA2EB8E5EB2EF12C0CE810E028
:1021A0009E012F5F3F4F46E069E10E945119509216
:1021B000210640922006CE0101960E94874362EFDD
:1021C00074E0CE0101960E94C5438FE190E00E9429
:1021D0000B602C0180E8E82EF12C9E012F5F3F4F11
:1021E00046E06AE1C2010E945119509223064092D2
:1021F0002206CE0101960E9487436BEF74E0CE0168
:1022000001960E94C5438FE190E00E940B602C0173
:1022100090EDE92EF12C9E012F5F3F4F46E06CE1DF
:10222000C2010E9451195092270640922606CE0103
:1022300001960E94874368E373E0CE0101960E94F5
:10224000C5438FE190E00E940B602C0120E2E22E5A
:10225000FF24F3949E012F5F3F4F40E06BE10E940B
:1022600051195092250640922406CE0101960E94F3
:10227000874368E174E0CE0101960E94C5438AE27B
:1022800090E00E940B602C017F926F927F927F9270
:1022900034E0832E48EFA42EB12C5CE1C52EDD2462
:1022A000D394EE24E39400E010E09E012F5F3F4FB3
:1022B00046E067E10E942A395092ED064092EC0612
:1022C000CE0101960E94874366E075E0CE0101963B
:1022D0000E94C5438FE190E00E940B603C016EEFCD
:1022E000862E99249A94AA24AA94BA2CE2E0CE2E9F
:1022F000F8EFEF2EF12C0CE810E09E012F5F3F4F1E
:1023000046E06DE10E9451197092290660922806FC
:10231000CE0101960E948743E4EBF7E0A0E3B6E02C
:102320000FB6F894DEBF0FBECDBF819191918D9312
:102330009D9397E0E43CF907C1F7EEEBF6E0A0E4EB
:10234000B6E0819191918D939D9386E0E03FF807EF
:10235000C1F7EEEEF5E0A2E7B6E0819191918D93A1
:102360009D9396E0EA32F907C1F78091B606909105
:10237000B7069093AF068093AE068091B806909111
:10238000B9069093B1068093B0068091BA069091F9
:10239000BB069093B3068093B2068091BC069091E1
:1023A000BD069093B5068093B4062C960FB6F894AC
:1023B000DEBF0FBECDBFDF91CF911F910F91FF9078
:1023C000EF90DF90CF90BF90AF909F908F907F90D5
:1023D0006F905F904F903F902F900895CF92DF9233
:1023E000EF92FF920F931F93CF93DF93CDB7DEB79A
:1023F00028970FB6F894DEBF0FBECDBF6C01F62E46
:102400000E94C039882309F472C06091F106C601A8
:102410000E94D53929833A834B835C838F839887C5
:102420000F811885F601808D813049F42685378526
:102430004089518962897389848995890BC082306A
:1024400068F0F60126813781408551856285738564
:10245000848595850E94E044F601108EF6018689F8
:10246000882309F444C0F11042C01695079508501E
:1024700011098B819C81800F911F29813A81200F46
:10248000311F3093CC0C2093CB0C9093CE0C8093C7
:10249000CD0CB601675E7F4F8FEB9CE00E94DA4364
:1024A000000F111F02501109F601858D968D4CE029
:1024B000489F9001499F300D1124200F311F338711
:1024C0002287338B228B8689833069F404851585B6
:1024D0004085518566817781EE24EA94FE2C8FEB4E
:1024E0009CE00E94BA3CF6018689808F148228966F
:1024F0000FB6F894DEBF0FBECDBFDF91CF911F9115
:102500000F91FF90EF90DF90CF9008951F93CF939E
:10251000DF93EC01162F0E94C0398823A9F120E037
:1025200030E0A9016AA17BA18CA19DA10E94265B3C
:10253000DE01A05CBF4FFE01E15AFF4F811104C0D4
:1025400083E08C9382E003C082E08C9383E08083FD
:10255000612FCE018A960E94EE11612FCE01875B1A
:102560009F4F0E94EE11FE01ED5AFF4F20813181F5
:102570008CA99DA9820F931F9B878A877197808161
:10258000888F111101C01C82DF91CF911F91089596
:102590000F931F93CF93DF9300D000D0CDB7DEB75A
:1025A0008C0129833A834B835C836D837E8320E097
:1025B00030E040E85FE3FC0162A173A184A195A132
:1025C0000E94265B81110CC029813A814B815C817C
:1025D0006D817E81C8018A960E94B537811139C00C
:1025E00020E030E0A901F80162A173A184A195A1C6
:1025F0000E94265B81110DC029813A814B815C814B
:102600006D817E81C801875B9F4F0E94B537811124
:102610002CC06B817C81F801468157818085918532
:10262000A285B38524853585E981FA814E175F0738
:1026300070F48617970758F44A0F5B1FE417F507E5
:1026400030F4280F391F81E062177307F0F080E043
:102650001CC083E0F801E05CFF4F808382E07F963E
:10266000808340E050E0BA010CC082E0F801E05CF9
:10267000FF4F808383E07F96808340E050E060E8F6
:102680007FE3C8010E946F38C4CF26960FB6F89436
:10269000DEBF0FBECDBFDF91CF911F910F91089587
:1026A0000F931F93CF93DF938C01EB018A81F80185
:1026B00082838B8183838C8184838D81858388E071
:1026C000FB013696D801169601900D928A95E1F796
:1026D00088E0FB013E96D8011E9601900D928A95E6
:1026E000E1F78E89F801868B8F89878B888D808FA3
:1026F0000617170769F1818D928D0097B1F0698DEA
:102700007A8D6115710579F0438D548D2D8D3E8D37
:102710004217530740F00E9450628D8D9E8DF80144
:10272000968F858F13C00E94A060898D9A8DF801C5
:10273000928F818F8B8D9C8D948F838F8D8D9E8DAD
:10274000968F858F1A8E198E1C8E1B8E1E8E1D8E57
:10275000C801DF91CF911F910F9108958F929F92A1
:10276000AF92BF92CF92DF92EF92FF920F931F939F
:10277000CF93DF93EC018B016A3071058CF56F8D7F
:1027800070E080E090E00E942B5B9B01AC0160E078
:1027900070E080E291E40E94355E4B015C0120E034
:1027A00030E040E251E46EA17FA188A599A50E9486
:1027B0008C5B6B017C01B801110F880B990B0E9497
:1027C0002D5BA50194010E94305D9B01AC01C70106
:1027D000B6010E94C45C6EA37FA388A799A713C00B
:1027E0006B30710549F44EA15FA168A579A50E94DF
:1027F0006F3882E08E8B03C06A30710521F41EA20F
:102800001FA218A619A681E08C83DF91CF911F919A
:102810000F91FF90EF90DF90CF90BF90AF909F907F
:102820008F900895FC019A01672BB1F464E670E083
:102830000E94DB5FAF01481B590B6AE0629FC00139
:10284000639F900D11249A01280F391FCF016AE070
:1028500070E00E94DB5F08C06AE070E00E94DB5F0E
:10286000AF01481B590BCA01820F931F0895CF93E4
:10287000FC01608170E06053784F80E090E00E943E
:102880002B5B20E030E048EC52E40E94305D0E9477
:10289000D85DC1E020E030E040EA51E40E94265BD0
:1028A0008111C0E08C2FCF9108954F925F926F926B
:1028B0007F928F929F92AF92BF92CF92DF92EF92D0
:1028C000FF920F931F93CF93DF93CDB7DEB76E9731
:1028D0000FB6F894DEBF0FBECDBF6C01B62E0E94BE
:1028E000C039882309F438C28601005D1F4FB80142
:1028F000CE0109960E940537CE0109960E94371431
:10290000882391F0C8010E9491362B013C01CE0131
:1029100001960E94C535CE0101960E949136461659
:102920005706680679066CF4CE0101960E94C535FB
:1029300086E0FE013196D601D09601900D928A95DF
:10294000E1F76091F106C6010E94D53929833A83E7
:102950004B835C836D837E838F839887EF80F884BD
:1029600040E050E0BA01CE010F960E941D37F601FB
:102970008689843019F486E0F09603C086E0F6017B
:10298000BA96DE011F9601900D928A95E1F7F60145
:10299000808D813049F42685378540895189628947
:1029A0007389848995890BC0823068F0F60126818D
:1029B00037814085518562857385848595850E9420
:1029C000E044F601108EF6018689882309F4C4C11B
:1029D000B110C2C1F694E794F8E0EF1AF1088B81C8
:1029E0009C818E0D9F1D29813A812E0D3F1D3093B4
:1029F000CC0C2093CB0C9093CE0C8093CD0C62E347
:102A000073E0CE0109960E94C5436F8570E0605364
:102A1000784F80E090E00E942B5B20E030E048ECB3
:102A200052E40E94305D0E94D85D20E030E040EA30
:102A300051E40E94265B811199C0F60186A982307B
:102A400008F041C0688970E0CE0145960E94CB3BFA
:102A5000BE016B5E7F4FCE0109960E941F43CE01DF
:102A600045960E94874362E175E0CE0109960E9477
:102A70001043698970E0CE0145960E94CB3BBE01B0
:102A80006B5E7F4FCE0109960E941F43CE01459693
:102A90000E94874362E175E0CE0109960E941043CF
:102AA0006F8570E06053784FCE0145960E94CB3B16
:102AB000BE016B5E7F4FCE0109960E941F43CE017F
:102AC00045960E948743F60186A9813031F468EA71
:102AD00073E0CE0109960E941043F60186A988236F
:102AE00009F44AC06A8970E0CE0145960E94CB3B4A
:102AF000BE016B5E7F4FCE0109960E941F43CE013F
:102B000045960E94874364E274E0CE0109960E94D4
:102B100010436B8970E0CE0145960E94CB3BBE010D
:102B20006B5E7F4FCE0109960E941F43CE014596F2
:102B30000E948743F60186A98330F1F464E274E0D1
:102B4000CE0109960E9410436C8970E0CE01459633
:102B50000E94CB3BBE016B5E7F4FCE0109960E9467
:102B60001F43CE0145960E94874306C064E175E08D
:102B7000CE0109960E945943BE01675F7F4F8FEBDC
:102B80009CE00E94DA438D859E854CE0489F900131
:102B9000499F300D112422503109C701880F991F18
:102BA000280F391FF60133872287338B228B8689C2
:102BB000833051F404851585408551856681778180
:102BC000EE24EA94FE2CBCC0843009F0BDC0C701DD
:102BD000880F991F281B390BF60140855185848584
:102BE0009585480F591F43505109668177816E0DB5
:102BF0007F1D01E010E08FEB9CE00E94C434F601E1
:102C000086A90681178177A8672D70E0823090F53C
:102C100080E090E00E942B5B20E030E040E05FE34A
:102C20000E948C5B0E94D85D9B01AC010E0D1F1DA4
:102C3000B80180E090E02B8F3C8F4D8F5E8F0E941B
:102C40002B5B4B015C01672D70E080E090E00E94FF
:102C50002D5B2B8D3C8D4D8D5E8D0E94C45C20E0E4
:102C600030E040E451E40E948C5B9B01AC01C50163
:102C7000B40133C066507109072E000C880B990B04
:102C80000E942D5B4B015C0120E030E040E05FE3FF
:102C90000E948C5B0E94D85D9B01AC01B701600F64
:102CA000711F80E090E02B8F3C8F4D8F5E8F0E94D4
:102CB0002B5B2B013C012B8D3C8D4D8D5E8DC50119
:102CC000B4010E94C45C20E030E040E451E40E9482
:102CD0008C5B9B01AC01C301B2010E94C45C0E94E9
:102CE000A25D7B01F6014085518584859585480F5D
:102CF000591F435051090FEF1FEF2AE030E0B70191
:102D00008FEB9CE00E94C434F60140855185848598
:102D10009585480F591F445051092AE030E0B7010A
:102D20008FEB9CE00E94C434F60104851585228552
:102D300033854085518566817781E12C88EFF82EB7
:102D40008FEB9CE00E94BA3CF6018689808F14824A
:102D5000CE0109960E9487436E960FB6F894DEBFA7
:102D60000FBECDBFDF91CF911F910F91FF90EF90DC
:102D7000DF90CF90BF90AF909F908F907F906F909B
:102D80005F904F9008952091EA053091EB058217EE
:102D90009307E9F09093EB058093EA05029724F4FA
:102DA00040E050E0BA0104C040E050E060E87FE35A
:102DB00082E00E94B03C8091EA059091EB05039778
:102DC00014F061E001C060E088E20C94892F08955E
:102DD000CF92DF92EF92FF920F931F93CF93DF93E7
:102DE000EB017B0124E0E20EF11C8B016C01C61AA1
:102DF000D70AC601800F911F0E944A5CF801819397
:102E00008F01EE15FF05A9F7CE01DF91CF911F913C
:102E10000F91FF90EF90DF90CF9008954F925F92C7
:102E20006F927F928F929F92AF92BF92CF92DF92DA
:102E3000EF92FF920F931F93CF93DF93CDB7DEB73F
:102E400027970FB6F894DEBF0FBECDBF7C016B0194
:102E50008C01065D1F4FC8010E9491362CE3822E23
:102E6000912CA12CB12CA50194010E94605CCA0197
:102E7000B9010E942D5B0E94D85D2B013C01C60167
:102E80000E949136A50194010E94605CCA01B901BB
:102E90000E942D5B0E94D85D9B01AC01C301B20171
:102EA0000E94265B811113C0F70186A9833009F0C7
:102EB00069C0C8010E9491364B015C01C6010E94A5
:102EC000913686169706A806B90609F45BC086E017
:102ED000F601D7019A9601900D928A95E1F7F701D4
:102EE00080A1882369F1C8010E94C73669837A836B
:102EF0008B839C83F7010281F4E00F9F80011124F2
:102F000003581F4F83E0000F111F8A95E1F7CE0190
:102F100001965C01480194E0890E911CF5016191D4
:102F20005F01C8016F830E944A5C6F81681719F0C6
:102F3000C8010E94525C0F5F1F4F0815190571F7F9
:102F4000F70186898430F1F0B601CE0101960E9426
:102F50000537CE0101960E943714882319F086E0C8
:102F6000F60107C0CE0101960E94C53586E0FE013C
:102F70003196D701D09601900D928A95E1F781E0C4
:102F8000F701848327960FB6F894DEBF0FBECDBF3E
:102F9000DF91CF911F910F91FF90EF90DF90CF9035
:102FA000BF90AF909F908F907F906F905F904F9069
:102FB00008958F929F92AF92BF92CF92DF92EF923D
:102FC000FF920F931F93CF93DF93CDB7DEB72C976C
:102FD0000FB6F894DEBF0FBECDBF8C017B016C0134
:102FE00080E3C80ED11CB601CE0107960E940537BA
:102FF000CE0107960E943714882391F0C6010E94E3
:1030000091364B015C01CE0101960E94C535CE017F
:1030100001960E94913686169706A806B9066CF4AA
:10302000CE0101960E94C53586E0FE013196D80199
:10303000D09601900D928A95E1F7EAE0EE16F10440
:10304000F4F4F801A7A8B12CB601CE0101960E94B4
:1030500005379701A501BE016F5F7F4FCE0107962F
:103060000E94344086E0FE013796D801D096019048
:103070000D928A95E1F7F80167A96F5F23C0FBE025
:10308000EF16F10481F4B601CE0101960E940537D6
:10309000BE016F5F7F4FC8010E940E1782E0F801EA
:1030A000868B86E006C0FAE0EF16F10481F486E034
:1030B000F801BA96D801D09601900D928A95E1F761
:1030C00066E0F80186A90E94B23BF80187AB81E077
:1030D000F80184832C960FB6F894DEBF0FBECDBFE7
:1030E000DF91CF911F910F91FF90EF90DF90CF90E4
:1030F000BF90AF909F908F9008956F927F928F9224
:103100009F92AF92BF92CF92DF92EF92FF920F9376
:103110001F93CF93DF93CDB7DEB72B970FB6F894FD
:10312000DEBF0FBECDBF3C01B62E142F84E792E068
:10313000F3019183808362E373E0C30149962B8797
:103140000E94C54386E892E0F3019183808340E0CA
:1031500050E0BA01C3018A960E941D3740E050E05A
:10316000BA01C301C0960E941D37F301B2821383D6
:1031700000A32B8526ABF782E682D186C08648E184
:1031800050E05587448788E590E093878287FFEF7A
:103190008F169F0661F0F301978686862D8D3E8DF2
:1031A000318B208B558B448B938B828B09C088E0AD
:1031B000EAE7F2E0D3011E9601900D928A95E1F7BD
:1031C00081E0F30184836091F106C3010E94183904
:1031D000F301868B108E88E081A3A78A002329F152
:1031E0000281F4E00F9F8001112403581F4F83E0F8
:1031F000000F111F8A95E1F76E012BE0C20ED11C62
:10320000CE0107967C01081B190BC8018E0D9F1D6E
:103210000E944A5CF70181937F01EC15FD05A9F737
:103220004F81588569857A8503C040E050E0BA0136
:10323000CE0101960E941D3786E0FE013196D30132
:103240009A9601900D928A95E1F740E050E0BA011C
:10325000CE0101960E941D3786E0FE013196D30112
:10326000D09601900D928A95E1F766E0F30186A968
:103270000E94B23BF30187AB2B960FB6F894DEBFEA
:103280000FBECDBFDF91CF911F910F91FF90EF90B7
:10329000DF90CF90BF90AF909F908F907F906F9076
:1032A00008952F923F924F925F926F927F928F92EA
:1032B0009F92AF92BF92CF92DF92EF92FF920F93C5
:1032C0001F93CF93DF931F92CDB7DEB73C01362E0D
:1032D00029012C2C82E692E0F30191838083630123
:1032E000F9E1CF0ED11C62E373E0C60149830E946D
:1032F000C543F3013282B201C6010E947043498185
:10330000F301438317830683F186E08648E150E0AA
:1033100055874487258D368D6AE0629FC001639F83
:10332000900D1124089693878287FFEFAF16BF0692
:1033300089F0F301B786A686918A808A558B448BE3
:103340004CE0429FC001439F900D11240696938B41
:10335000828B09C088E0EAE7F2E0D3011E96019073
:103360000D928A95E1F781E0F30184836091F10683
:10337000C3010E941839F301868B108E278A0F90A3
:10338000DF91CF911F910F91FF90EF90DF90CF9041
:10339000BF90AF909F908F907F906F905F904F9075
:1033A0003F902F9008952F923F924F925F926F928D
:1033B0007F928F929F92AF92BF92CF92DF92EF92C5
:1033C000FF920F931F93CF93DF93CDB7DEB7E297B2
:1033D0000FB6F894DEBF0FBECDBF3C01D62E1FA79F
:1033E0000EA7FFA2EEA2150199A688A684E792E097
:1033F000F301918380838301075E1F4F62E373E0D3
:10340000C80129AB3AAB48AB0E94C5438AE692E0BB
:10341000F3019183808382E6482E82E0582E53A6E2
:1034200042A6C3018A969DA78CA762E373E04996E2
:103430000E94C543F301E75BFF4FFBA7EAA7518258
:10344000408262E373E0CF0149960E94C543F301D5
:10345000D28248A9438362E373E0C8010E945943C2
:10346000F301178EC0A229A93AA9B901CE0180960D
:103470000E94BC439EEF892E99249A94AA24AA9470
:10348000BA2C33E0C32EE8A4F9A481019E01205E8A
:103490003F4FF30143816EE1CE0101960E94511925
:1034A000BE016F5F7F4F8CA59DA50E9450135A826D
:1034B0004982CE014A960E948743CE0180960E949F
:1034C0008743F30104A915A90C5F1F4F020D131DBB
:1034D0006EA57FA5CE0180960E94BC43E8A4F9A406
:1034E0009E01205E3F4FF30143816EE1CE010196C4
:1034F0000E945119BE016F5F7F4F8AA59BA50E9454
:1035000050135A824982CE014A960E948743CE01C7
:1035100080960E948743F3013782268228A539A529
:103520003187208788E190E095878487ED5AFF4FA7
:1035300020813181F30184A995A9820F931F93877C
:10354000828788E0EAE7F2E0D3011E9601900D92AF
:103550008A95E1F781E0F30184836091F106C3016C
:103560000E941839F301868B108E88E081A383E0D6
:10357000878B80A18823D1F08281BE016F5F7F4F4E
:10358000F4E08F9FC00111240E94E81601E010E0D2
:1035900020E030E0A90169817A818B819C810E94C1
:1035A000265B811101C000E00EA31FA32EA13FA145
:1035B000B901330F880B990B0E942D5BF30162A3B5
:1035C00073A384A395A316A217A210A611A6E29630
:1035D0000FB6F894DEBF0FBECDBFDF91CF911F9124
:1035E0000F91FF90EF90DF90CF90BF90AF909F90A2
:1035F0008F907F906F905F904F903F902F900895A5
:103600000895E091750580917405E81730F4F0E0B5
:10361000EC53F84F808190E008958FEF9FEF08956D
:103620009091750580917405981750F4E92FF0E09A
:10363000EC53F84F208130E09F5F9093750502C0F6
:103640002FEF3FEFC90108958091740590E020911C
:103650007505821B91090895DC015996ED91FC9145
:103660005A973097B9F083899489A589B68942859C
:10367000538564857585841B950BA60BB70B811547
:1036800020E89207A105B10538F08FEF9FE7A0E091
:10369000B0E0089580E090E00895CF93DF931F920B
:1036A000CDB7DEB76983DC01ED91FC910280F38137
:1036B000E02D41E050E0BE016F5F7F4F19950F9004
:1036C000DF91CF910895EF92FF920F931F93DC014A
:1036D000ED91FC9111971A960D911C911B971896DC
:1036E0002D913C911997048CF58DE02D7B0140E0E4
:1036F00050E060E070E019951F910F91FF90EF90FE
:103700000895CF92DF92EF92FF920F931F93CF9382
:10371000DF937C01262F972F8A0180915B0A8823F3
:1037200091F0C62FD72F6E01C40ED51ECC15DD0526
:1037300071F06991D701ED91FC910190F081E02D3C
:10374000C7011995F3CF642F822F0E945826C80114
:10375000DF91CF911F910F91FF90EF90DF90CF906D
:103760000895CF93DF931F92CDB7DEB76983209181
:103770005B0A2223D1F020917E0A203240F021E022
:1037800030E0FC013383228380E090E015C080911B
:103790005C0AE82FF0E0E35AF54F998190838F5F40
:1037A00080935C0A80937E0A05C061E0CE01019699
:1037B0000E94582681E090E00F90DF91CF9108950C
:1037C000CF93DF93EC01898D9A8D009739F481E0D6
:1037D00090E09B838A8380E090E00BC0FC01138221
:1037E00012820E94482AE98DFA8D22813381232B8F
:1037F00071F7DF91CF910895611102C060E201C0BD
:1038000061E20C9437341F93CF93DF93EC01162FB2
:1038100066E30E943734612F63706D8B623041F034
:10382000633089F0613011F060EC03C060EA0CC0D5
:1038300060E0CE010E94FA3380E491E099878887A6
:1038400080EE91E00AC060E6CE010E94FA3380EE7D
:1038500091E09987888780E491E09B878A87DF9150
:10386000CF911F910895AF92BF92CF92DF92EF92C6
:10387000FF920F931F93CF93DF93EC0159016801DF
:1038800028853985621773070CF05CC08A859B8593
:10389000481759070CF056C0FB01EA0DFB1D2E1707
:1038A0003F071CF45901A61AB70A9A012C0D3D1DB9
:1038B000821793071CF46C01C41AD50A8A010C0DF7
:1038C0001D1D015011099B012A0D3B1D215031097D
:1038D000CE010E947534EDA1FEA190818DA9892BA6
:1038E0008083EFA1F8A5908189A9809589238083A1
:1038F00088A18F3F51F48091100C9091110C0E947F
:10390000F73303C081E0C81AD1081C141D047CF4ED
:10391000850110161106B4F76F2DCE010E94C73332
:103920006E2DCE010E94C73301501109F2CF88A13C
:103930008F3F11F40E94BF33EFA1F8A5908189A9B0
:10394000892B8083DF91CF911F910F91FF90EF9092
:10395000DF90CF90BF90AF900895CF93DF93EC01AD
:103960008D818823A1F18C8187FF2DC06E857F8595
:103970008889998941E00E94BB26882341F1EA8920
:1039800080E2E89FF0011124DF01AE5CB74F109791
:10399000F1F08D81823050F44B895C896D897E898C
:1039A0005C964D935D936D937C935F978F89988D13
:1039B000A98DBA8DEE5CF74F938F828FB58BA48B58
:1039C0008C818F778C83DF91CF910C94802680E05F
:1039D000DF91CF910895FC01818D928D009711F0B8
:1039E0000C94AD1C08958F929F92AF92BF92CF928C
:1039F000DF92EF92FF920F931F93CF93DF93EC012F
:103A00008D81811102C080E077C00B891C892D89CE
:103A10003E890417150726073707A8F36A017B01BB
:103A2000823029F4CA86DB86EC86FD860DC0C1147F
:103A3000D104E104F10451F41E821F821886198614
:103A40001A861B861C861D8681E056C08A849B844C
:103A5000AC84BD84EB8DFC8D258530E0275F3F4F26
:103A6000B501A4014150510961097109022E04C038
:103A700076956795579547950A94D2F7D701C60171
:103A80000197A109B10904C0B695A79597958795A7
:103A90002A95D2F784179507A607B70720F089283B
:103AA0008A288B2849F44F89588D698D7A8D4E83E9
:103AB0005F836887798704C0841B950BA60BB70BBF
:103AC0004C015D018E010A5F1F4F81149104A10416
:103AD000B10409F4A7CF4E815F816885798598018B
:103AE0008B8D9C8D0E94A42791E0891A9108A108D2
:103AF000B1088111EACF87CFDF91CF911F910F914C
:103B0000FF90EF90DF90CF90BF90AF909F908F90FD
:103B100008958F929F92AF92BF92CF92DF92EF92D1
:103B2000FF920F931F93CF93DF9300D01F92CDB7D7
:103B3000DEB77C0180E2689F6001112496012E5C53
:103B4000374FD9011B969C91917121F0842F82747B
:103B500009F097C0142FF701628B80913402909185
:103B60003502A0913602B091370286879787A08BE5
:103B7000B18BF601EE5CF74F4489558960E070E047
:103B8000BA0155274427D70157964D935D936D93FE
:103B90007C935A97828D938DA0E0B0E0482B592BEF
:103BA0006A2B7B2BD70157964D935D936D937C9336
:103BB0005A97D9011B968C91887159F4848D958DF3
:103BC000A68DB78DF701838B948BA58BB68B81E087
:103BD00012C0803109F055C097012D5E3F4FD701CB
:103BE0005B968D919C915C970E942828882309F40C
:103BF00048C084E0F7018583812F8F70D701149628
:103C00008C931497F70116821782108611861A96E4
:103C10001D921D921D921C921D9716FF34C0159681
:103C20008C91813071F511FF2CC0F70143895489C3
:103C300065897689452B462B472B09F461C040E006
:103C400050E0BA01C7010E94F31C8823D1F0F701AC
:103C50008788908CA18CB28CC38CD48C82E090E04D
:103C6000A0E0B0E0F60180839183A283B3839E013C
:103C70002F5F3F4FB501A401C6010E94A427811107
:103C800004C080E03DC081E03BC000E010E098014E
:103C9000B501A401C6010E940427882391F38980FD
:103CA0009A80AB80BC80D60157968C91803129F0E8
:103CB00088EF9FEFAFEFBFE004C088EF9FEFA0E079
:103CC000B0E088169906AA06BB0688F2D701579677
:103CD0001D921D921D921C925A97F701138A148A05
:103CE000158A168A848180688483C7010E94AD1C6E
:103CF000882339F240E050E0BA01C7010E94F31C6A
:103D00000F900F900F900F90DF91CF911F910F9117
:103D1000FF90EF90DF90CF90BF90AF909F908F90EB
:103D20000895CF93DF93EC010E94AD1C882311F01E
:103D30001D8281E0DF91CF9108953F924F925F9273
:103D40006F927F928F929F92AF92BF92CF92DF92AB
:103D5000EF92FF920F931F93CF93DF93CDB7DEB710
:103D60002C970FB6F894DEBF0FBECDBF5C01DC010F
:103D70005B968D909C905C971696CD90DD90ED9023
:103D8000FC901997C114D104E104F10439F0BFEF9C
:103D9000CB1ADB0AEB0AFB0A312C07C0F401C08006
:103DA000D180E280F38033243394F40181859285BD
:103DB000A385B4859C01AD012F5F3F4F4F4F5F4FEF
:103DC00029873A874B875C87260137011D821E822F
:103DD0001F821886F40181859285A385B4852D8183
:103DE0003E814F815885281739074A075B0708F03D
:103DF00063C089859A85AB85BC858C159D05AE050C
:103E0000BF0550F482E0C82ED12CE12CF12C92E0B9
:103E1000492E512C612C712C9E012F5F3F4FB70111
:103E2000A601C4010E94A427882309F445C0898102
:103E30009A81AB81BC81892B8A2B8B2B41F0260187
:103E400037019FEF491A590A690A790A05C0C41453
:103E5000D504E604F70491F02D813E814F81588509
:103E60002F5F3F4F4F4F5F4F2D833E834F835887C8
:103E70003FEFC31AD30AE30AF30AACCF0FEF1FEFE9
:103E80002FEF3FE0B301A201C4010E940427882361
:103E900099F0D50116964D915D916D917C91199790
:103EA000411551056105710549F093018201C40175
:103EB0000E940427811102C080E02AC0D501169615
:103EC0004D925D926D927C921997332051F0D301FF
:103ED000C2010196A11DB11DF40180839183A283CB
:103EE000B383F5018789908DA18DB28D892B8A2BA3
:103EF0008B2B69F4D50157964D925D926D927C9211
:103F00005A9714968C911497806814968C9381E03C
:103F10002C960FB6F894DEBF0FBECDBFDF91CF91C8
:103F20001F910F91FF90EF90DF90CF90BF90AF90D7
:103F30009F908F907F906F905F904F903F900895EB
:103F4000CF93DF93EC018091E507811109C081E0F7
:103F50008093E5078091B90B9091BA0B0E94F733DB
:103F600060E08C81DF91CF910C94892F61E0FC019E
:103F700084810E94892F8091E507882321F0109287
:103F8000E5070C94BF3308958FEF0C94C0330F9363
:103F90001F93CF93DF93EB010E945C428B010E9441
:103FA000C41F8F3F49F00E945C42601B710B6C176D
:103FB0007D07A8F380E001C081E0DF91CF911F91E0
:103FC0000F910895CF93DF93EC018E81882389F0C0
:103FD0008F8198859C012F5F3F4F38872F838230D8
:103FE000924018F40E94C41FF3CFCE010E94B61F66
:103FF0001E82DF91CF910895CF92DF92FF920F93AF
:104000001F93CF93DF9300D01F92CDB7DEB76C0123
:10401000F62E29833A834B835C830E94E21FC601FC
:104020000E94A01F6CE271E0C6010E94C71F8F2D85
:1040300080640E94C03308E110E05C814B813A81CA
:104040002981DA01C901002E04C0B695A79597957C
:1040500087950A94D2F729833A834B835C830E9425
:10406000C0330850110929813A814B815C81083F96
:104070008FEF180731F7FF2029F0E8E0FE1204C0A7
:1040800087E803C085E901C08FEF0E94C03310E0CC
:104090000E94C41FF601828787FF04C01F3F11F0F2
:1040A0001F5FF6CF0F900F900F900F90DF91CF9181
:1040B0001F910F91FF90DF90CF900895AF92BF9224
:1040C000CF92DF92EF92FF920F931F93CF93DF93E4
:1040D000EC016901C801820F931F8130924008F002
:1040E00070C08E81882371F088819981AA81BB81FB
:1040F000481759076A077B0729F48F819885C816E6
:10410000D906B0F5488359836A837B838B858330D6
:1041100039F089E0440F551F661F771F8A95D1F744
:104120009A01AB0161E1CE010E94FC1F882319F0C6
:1041300083E08D8346C00E945C425B010E94C41FE5
:104140008A878F3F49F40E945C426A197B096D326D
:104150007140A0F38FE003C08E3F31F08DE08D837E
:10416000CE010E94B61F2DC018861F8281E08E836B
:104170008F8198858C159D0540F40E94C41F8F8106
:104180009885019698878F83F3CF6701E00EF11E23
:10419000CE14DF0431F00E94C41FF60181936F0139
:1041A000F7CF8F819885080F191F18870F8389858E
:1041B000882319F00115124048F0CE010E94E21F39
:1041C00005C0CE010E94B61F80E001C081E0DF91F2
:1041D000CF911F910F91FF90EF90DF90CF90BF9004
:1041E000AF900895EF92FF920F931F93CF93DF93B9
:1041F000EC017901411551056105710511F482E168
:104200003CC08B85833039F089E0440F551F661F11
:10421000771F8A95D1F79A01AB0168E1CE010E9420
:10422000FC1F882311F084E028C08EEF0E94C03369
:1042300087018EEFF81AF80181918F010E94C03337
:104240000E151F05C1F78FEF0E94C0338FEF0E943C
:10425000C0330E94C41F8A878F71853031F081E19D
:104260008D83CE010E94B61F09C068E572E0CE01C1
:104270000E94C71F811107C085E18D83CE010E9476
:10428000B61F80E013C020E030E0A9016DE0CE0150
:104290000E94FC1F811104C00E94C41F882311F0DA
:1042A00084E1EBCFCE010E94B61F81E0DF91CF9178
:1042B0001F910F91FF90EF900895FC01DB01129682
:1042C0008D919C9113979383828380ED92E09183EB
:1042D000808314968C911497848315968C911597EE
:1042E000858316964D915D916D917C9119974683CA
:1042F0005783608771871A964D915D916D917C917E
:104300001D9742875387648775871E964D915D91EF
:104310006D917C91519746875787608B718B529630
:104320008C915297828B53964D915D916D917C91BA
:104330005697438B548B658B768B57964D915D9139
:104340006D917C915A97478B508F618F728F5B96DE
:104350008D919C915C97948F838F0895EF92FF923B
:104360000F931F93CF93DF93EC017B018A011B8294
:104370001A8288EE93E0A0E0B0E08C839D83AE8348
:10438000BF8380E992E0998388838DE190E00E9469
:104390000B609A8F898F009779F02DE1F701DC018E
:1043A00001900D922A95E1F74CE050E0B801CE0162
:1043B0000C960E945762188EDF91CF911F910F913A
:1043C000FF90EF9008952F923F924F925F926F92DD
:1043D0007F928F929F92AF92BF92CF92DF92EF9295
:1043E000FF920F931F93CF93DF931F921F92CDB72E
:1043F000DEB7FC018581882309F4D9C0848180FF60
:10440000D6C021E02A8343895489658976898285CB
:104410009385A485B585481759076A077B0709F472
:104420001A826F013A81832F90E0DE0111964D01CF
:104430003F01B6E06B0E711C892B09F47DC0D601DB
:104440001A964D915D916D917C911D975A01B1E045
:10445000BB22F60125811A012B0189E0569447946D
:10446000379427948A95D1F7838D948D223061F407
:10447000FC01828D938DA48DB58DBC01CD01620DA3
:10448000731D841D951D45C0DC0114961C911150AF
:104490001221A114B104D1F4111118C0452B462BDF
:1044A000472B51F4F6018789908DA18DB28D8683BB
:1044B0009783A087B1870AC046815781608571853F
:1044C00093010E94A427882309F471C0F601238D6B
:1044D000348D86819781A085B1850297A109B109A4
:1044E000AC01BD01F901058404C0440F551F661FCE
:1044F000771F0A94D2F786859785A089B189840FA2
:10450000951FA61FB71FBC01CD01610F711D811D35
:10451000911DD60114962C9126FF14C000913402EF
:1045200010913502209136023091370260177107E1
:104530008207930751F506C0FA81FF23C1F18981F3
:1045400090E037C040E00E94BB26882381F1F5014E
:10455000EE5CF74FD401CF010196E817F90719F087
:1045600021912D93FACFEFEF8E1A9E0AF6018285E4
:104570009385A485B5850196A11DB11D828793877A
:10458000A487B58780E090E057CF740101E010E088
:104590009501AB01BC018091320A9091330A0E94CF
:1045A0005E20882321F0BFEF8B1A9B0ADFCF8FEFAD
:1045B0009FEF0F900F90DF91CF911F910F91FF9080
:1045C000EF90DF90CF90BF90AF909F908F907F90B3
:1045D0006F905F904F903F902F900895FC01818DD8
:1045E000928D009711F00C94E3218FEF9FEF0895C7
:1045F0000F931F93CF93DF93FC01818D928D0097D2
:10460000B9F0EF010E94E3218C010F3F8FEF1807F3
:1046100091F0898D9A8DFC0142855385648575855D
:1046200041505109610971090E94F31CC80105C07C
:1046300080E090E002C08FEF9FEFDF91CF911F915C
:104640000F910895CF93CFB7F8948091E40781112B
:1046500027C0E5E0F5E08491E5EAF4E09491E82FE5
:10466000F0E0EE0FFF1FEE5DF54FA591B491EC91D8
:10467000E92321F461E085E30E94892F61E085E36D
:104680000E94C7418CB580618CBD8CB580648CBDA7
:1046900061E084E30E94C74161E083E30E94C74177
:1046A0008091E4078F5F8093E407CFBFCF91089597
:1046B000FC01A089B1898C91A689B78982FD0FC0C0
:1046C0009C91818D8F5F8F73228D821749F0218D90
:1046D000DF01A20FB11D5D969C93818F08958C918F
:1046E0000895FC01918D828D981761F0828DDF0114
:1046F000A80FB11D5D968C91928D9F5F9F73928FD5
:1047000090E008958FEF9FEF0895FC01918D828DC9
:10471000981731F0828DE80FF11D858D90E0089596
:104720008FEF9FEF0895FC01918D228D892F90E0EE
:10473000805C9F4F821B91098F73992708958FE7A3
:104740009AE00E94932321E0892B09F420E0822F34
:1047500008958CE19BE00E94932321E0892B09F4CA
:1047600020E0822F0895FC01848DDF01A80FB11D88
:10477000A35ABF4F2C91848D90E001968F73992797
:10478000848FA689B7892C93A089B1898C91806484
:104790008C93938D848D981306C00288F389E02D45
:1047A00080818F7D80830895EF92FF920F931F93F6
:1047B000CF93DF93EC0181E0888F9B8D8C8D9813D4
:1047C00005C0E889F989808185FD24C0F62E0B8D0E
:1047D00010E00F5F1F4F0F731127E02E8C8DE81232
:1047E0000CC00FB607FCFACFE889F989808185FFF4
:1047F000F5CFCE010E94B323F1CF8B8DFE01E80FE0
:10480000F11DE35AFF4FF0820B8FEA89FB8980810B
:10481000806207C0EE89FF896083E889F989808119
:104820008064808381E090E0DF91CF911F910F91B0
:10483000FF90EF900895CF93DF93EC01888D88234C
:10484000C9F0EA89FB89808185FD05C0A889B989FD
:104850008C9186FD0FC00FB607FCF5CF808185FFD8
:10486000F2CFA889B9898C9185FFEDCFCE010E9446
:10487000B323E7CFDF91CF91089580E090E0892BBB
:1048800021F00E94A923811121C080E090E0892BB2
:1048900021F00E949F2381111CC080E090E0892BB1
:1048A00041F080E090E0892B21F00E94000081110E
:1048B00013C080E090E0892BA1F080E090E0892B8C
:1048C00081F00E94000081110AC008950E9400003A
:1048D000DCCF0E940000E1CF0E940000EACF0C94E0
:1048E0000000089585ED8093BC008091BC0084FD9C
:1048F000FCCF10925A0A08950E9421621F920F92D3
:104900000FB60F9211240BB60F922F933F934F9334
:104910005F936F937F938F939F93AF93BF93EF9327
:10492000FF938FE79AE00E94B323FF91EF91BF912D
:10493000AF919F918F917F916F915F914F913F9137
:104940002F910F900BBE0F900FBE0F901F901895D8
:104950001F920F920FB60F9211240BB60F922F9346
:104960003F934F935F936F937F938F939F93AF93F7
:10497000BF93EF93FF938FE79AE00E945823FF9134
:10498000EF91BF91AF919F918F917F916F915F91C7
:104990004F913F912F910F900BBE0F900FBE0F9034
:1049A0001F9018951F920F920FB60F9211240BB6FD
:1049B0000F922F933F934F935F936F937F938F93B8
:1049C0009F93AF93BF93EF93FF938CE19BE00E9483
:1049D000B323FF91EF91BF91AF919F918F917F9101
:1049E0006F915F914F913F912F910F900BBE0F9060
:1049F0000FBE0F901F9018951F920F920FB60F9237
:104A000011240BB60F922F933F934F935F936F93A5
:104A10007F938F939F93AF93BF93EF93FF938CE11B
:104A20009BE00E945823FF91EF91BF91AF919F911E
:104A30008F917F916F915F914F913F912F910F9047
:104A40000BBE0F900FBE0F901F9018951F920F92E4
:104A50000FB60F9211240BB60F922F933F934F93E3
:104A60005F936F937F938F939F93AF93BF93EF93D6
:104A7000FF938091B900887F803609F49CC068F567
:104A8000883209F45BC090F4803109F454C038F4E2
:104A9000882309F4F6C0883009F44DC0F6C0883187
:104AA00009F44CC0803209F45DC0EFC0803409F4D1
:104AB00068C048F4803309F455C0883309F0E5C074
:104AC0008093580AD8C0803509F44FC0883509F45E
:104AD0005DC0883409F0D9C0D6C0883909F4C7C090
:104AE000A8F4883709F467C038F4883609F463C03D
:104AF000803709F460C0C9C0883809F4B8C080396B
:104B000009F45FC0803809F0C0C05BC0803B09F485
:104B100086C038F4803A09F466C0883A09F47FC048
:104B2000B4C0803C09F4A7C0883C09F4A4C0883B09
:104B300009F48AC0AAC08091350A10C09091570A22
:104B40008091560A981770F5E091570A81E08E0F10
:104B50008093570AF0E0EA5CF54F80818093BB00B8
:104B600085EC86C08093580A8EC0E091570A81E098
:104B70008E0F8093570A8091BB00F0E0EA5CF54FFE
:104B800080839091570A8091560A6EC0E091570A2F
:104B900081E08E0F8093570A8091BB00F0E0EA5CC1
:104BA000F54F80838091590A81116DC081E0809317
:104BB000340A84EA61C083E080935A0A1092310873
:104BC000CFCF80913108803208F051C0E091310898
:104BD00081E08E0F809331088091BB00F0E0EF5EA2
:104BE000F74F8083BDCF85EC8093BC0010925A0AAA
:104BF00080913108803230F4E0913108F0E0EF5ECE
:104C0000F74F10826091310870E0E0910F08F09149
:104C1000100881E198E019951092310836C084E0BF
:104C200080935A0A10920E0810920D08E0910B081A
:104C3000F0910C08199580910D08811105C081E053
:104C400080930D081092EB07E0910E0881E08E0F23
:104C500080930E08F0E0E551F84F80818093BB000F
:104C600090910E0880910D08981708F479CF85E887
:104C70008093BC000AC085EC8093BC0010925A0A55
:104C800004C01092580A0E947224FF91EF91BF91C4
:104C9000AF919F918F917F916F915F914F913F91D4
:104CA0002F910F900BBE0F900FBE0F901F90189575
:104CB00040910D08262F30E0240F311D213231059F
:104CC000DCF420915A0A2430C9F4FC0180E090E021
:104CD000861758F430910D082191DC01A551B84F89
:104CE000A30FB11D2C930196F3CF80910D08680F8F
:104CF00060930D0880E0089581E0089582E00895B2
:104D00008091E6078823A9F1409134025091350241
:104D1000609136027091370222E338E08091320AC6
:104D20009091330A0E94F220811102C080E0089520
:104D30004091E7075091E8076091E9077091EA0711
:104D4000411551056105710591F022E338E080912C
:104D5000320A9091330A0E94F220882339F310928C
:104D6000E7071092E8071092E9071092EA071092FD
:104D7000E60781E008958F929F92AF92BF92EF92E3
:104D8000FF920F931F93CF934B015C01C42F80912F
:104D9000340290913502A0913602B0913702881505
:104DA0009905AA05BB0501F10E948026811102C068
:104DB00080E020C082E3E82E88E0F82E00E012E0D8
:104DC00020E030E0B501A4018091320A9091330ACD
:104DD0000E945E20882361F3809234029092350213
:104DE000A0923602B09237028091E607C82BC0939A
:104DF000E60781E0CF911F910F91FF90EF90BF9058
:104E0000AF909F908F9008954F925F926F927F9294
:104E10008F929F92AF92BF92CF92DF92EF92FF92CA
:104E20000F931F93CF93DF93EC016A017B0128015D
:104E30003901423051056105710510F480E073C0FD
:104E400089859A85AB85BC850196A11DB11D841706
:104E50009507A607B70790F38B889C88AD88BE8816
:104E60008F89803129F4BB27AF2D9E2D8D2D09C050
:104E7000DB01CA0147E0B695A795979587954A95B6
:104E8000D1F7880E991EAA1EBB1E80913402909104
:104E90003502A0913602B091370288169906AA060B
:104EA000BB0679F48F898031A1F4DD24EE24FF2440
:104EB000C601880F991FFC01EE5CF74F51824082BA
:104EC00019C040E0C501B4010E94BB268111EACFA0
:104ED000B5CFE894C7F8DD24EE24FF24C601880F7F
:104EE000991F880F991FFC01EE5CF74F4082518299
:104EF000628273828091E60781608093E6078A89E7
:104F0000823080F08D819E81AF81B885880E991E98
:104F1000AA1EBB1E8092E7079092E807A092E907BD
:104F2000B092EA0781E0DF91CF911F910F91FF903E
:104F3000EF90DF90CF90BF90AF909F908F907F9039
:104F40006F905F904F9008958F929F92AF92BF9213
:104F5000CF92DF92EF92FF920F931F93CF93DF9345
:104F6000FC0181859285A385B4850196A11DB11DA3
:104F700084179507A607B70710F480E05CC0838903
:104F80009489A589B689C789C03129F4852E962EC2
:104F9000A72EBB2409C04A015B01C7E0B694A794C1
:104FA00097948794CA95D1F7E9016A017B018F0133
:104FB000BC01CD01680D791D8A1D9B1D80903402B6
:104FC00090903502A0903602B090370268157905AE
:104FD0008A059B0599F4F80187898031A9F4B70106
:104FE000A601552766277727440F551FFA01EE5C67
:104FF000F74F80819181A0E0B0E018C040E00E94AE
:10500000BB268111E8CFB9CFB701A6014F7755274D
:1050100066277727440F551F440F551FFA01EE5C92
:10502000F74F80819181A281B381BF70888399837A
:10503000AA83BB8381E0DF91CF911F910F91FF90F5
:10504000EF90DF90CF90BF90AF909F908F9008959A
:105050004F925F926F927F92AF92BF92CF92DF9208
:10506000EF92FF920F931F93CF93DF9300D01F9285
:10507000CDB7DEB78C0149835A836B837C8359019A
:10508000C12CD12C7601412C82E0582E612C712C40
:1050900049815A816B817C819E012F5F3F4FC801FE
:1050A0000E94A427882351F1D301C201F80105848D
:1050B00004C0880F991FAA1FBB1F0A94D2F7C80EFD
:1050C000D91EEA1EFB1E49815A816B817C8187892A
:1050D000803129F088EF9FEFAFEFBFE004C088EF89
:1050E0009FEFA0E0B0E0481759076A077B0780F2FE
:1050F000F501C082D182E282F38281E00F900F90AD
:105100000F900F90DF91CF911F910F91FF90EF9033
:10511000DF90CF90BF90AF907F906F905F904F9057
:1051200008954F925F926F927F92AF92BF92CF920B
:10513000DF92EF92FF920F931F93CF93DF93CDB740
:10514000DEB72B970FB6F894DEBF0FBECDBF7C0144
:10515000CE0101966C01FC0190E28BE08C0D9193E5
:105160008E13FDCFDA0130E047E09D91992339F1AC
:105170009E3219F0E0E0F4E00AC04A3009F472C14E
:1051800038E04AE0F2CF3196891709F46BC1849177
:105190008111F9CF431708F465C18FED890F8E3562
:1051A00008F060C181E0830FF601E30FF11D3FE9D4
:1051B000390F3A3108F490529083382FD6CF898135
:1051C000803209F44FC1B22E8B01DB015B968D91C9
:1051D0009C915C97F701948F838F16961D921D9278
:1051E0001D921C921997FB01128613861486158650
:1051F000712CF80182859385A485B58543895489EE
:105200006589768984179507A607B70708F061C0F6
:1052100025E0B695A795979587952A95D1F7F82F0C
:10522000FF706F2ED80115968C91823008F41AC148
:10523000C8010E94E32197FD15C1F801828593857D
:10524000A485B5854F96A11DB11D82879387A4873C
:10525000B587F0E26F9EC0011124BC016E5C774FF0
:105260006115710509F4FEC0DB012C91222319F0B0
:10527000253EC1F427C071100EC0F701628A40912B
:1052800034025091350260913602709137024687A0
:105290005787608B718BFC01EE5CF74F8081811129
:1052A00013C015C04BE050E0C6010E942662892B56
:1052B00009F09FCF8B2D8073803309F4D3C04B2D21
:1052C000662DCCC07720C9F27724739492CF7724CF
:1052D00073948B2D8271823109F0C4C07720D1F094
:1052E000D7011E966D917D918D919C91519741E0D2
:1052F0000E94BB26882309F4B5C0F7016289F0E259
:105300006F9FB00111246E5C774F6115710509F034
:1053100079C0A8C0D80115968C91823009F4A2C03A
:10532000C8010E949D1E882309F49CC0D8015B9689
:10533000ED91FC915C9716964D905D906D907C90F0
:105340001997B2E04B1A510861087108058404C02E
:10535000440C551C661C771C0A94D2F786859785E9
:10536000A089B189480E591E6A1E7B1EA480E1E007
:105370004E1A510861087108AA2009F10E9480267E
:10538000882309F46FC0E2E3F8E011922AE0E233E7
:10539000F207D9F7D301C2018A0D911DA11DB11DDC
:1053A0008093340290933502A0933602B093370273
:1053B0008091E60781608093E607AA94DDCFD8014B
:1053C0005B96ED91FC915C9780E092E0A0E0B0E00C
:1053D000058404C0880F991FAA1FBB1F0A94D2F727
:1053E000F8014389548965897689840F951FA61F22
:1053F000B71F838B948BA58BB68BD70152961C92CB
:1054000062E378E080E2FB0111928A95E9F78BE094
:10541000F601DB0101900D928A95E1F781E298E2B5
:10542000DB0151969C938E93509720E038E01F96B5
:105430003C932E931E9753969C938E935297599616
:105440009C938E93589757963C932E9356970E9411
:105450008026882339F04B2DF7016289C7010E940D
:10546000891D01C080E02B960FB6F894DEBF0FBEF9
:10547000CDBFDF91CF911F910F91FF90EF90DF9003
:10548000CF90BF90AF907F906F905F904F900895B6
:105490002F923F924F925F926F927F928F929F9244
:1054A000AF92BF92CF92DF92EF92FF920F931F9332
:1054B000CF93DF9300D01F92CDB7DEB78C015B0195
:1054C0001A01DC0115968C9115978130C9F4149658
:1054D0008C9181FF15C082FF1BC0F801438954895C
:1054E0006589768982859385A485B5858417950716
:1054F000A607B70769F0C8010E94F31C811108C014
:1055000081E090E0F8019383828380E090E039C1EC
:10551000610183C0D8015B968D919C915C97FC01E1
:10552000248121502A013B0139E0769467945794F5
:1055300047943A95D1F7722E74207A01F1E0FF2258
:10554000772009F476C080E092E08E199F09460129
:105550008C159D0508F44C01D8015B962D913C916A
:105560005C9716968D919D910D90BC91A02D029700
:10557000A109B109F901058404C0880F991FAA1F68
:10558000BB1F0A94D2F74685578560897189840FBD
:10559000951FA61FB71F9C01AD01270D311D411D91
:1055A000511D29013A01811432E0930609F088C0A7
:1055B0008091340290913502A0913602B091370269
:1055C00084159505A605B70559F48FEF9FEFDC010B
:1055D0008093340290933502A0933602B093370241
:1055E0009501B301A2018091320A9091330A0E9481
:1055F000F220882309F484CF9EEFB91AC818D9087D
:10560000F80182859385A485B585880D991DA11D16
:10561000B11D82879387A487B587D8011A964D91CB
:105620005D916D917C911D97C114D10409F072CFE9
:1056300087C0E114F10409F086CF16964D915D9173
:105640006D917C911997411551056105710559F4CA
:1056500057968D919D910D90BC91A02D0097A1051D
:10566000B10541F521C09E012F5F3F4F0E94A42745
:10567000882309F44BCF89819A81AB81BC81F801E1
:10568000238D348DF9012789203129F048EF5FEF10
:105690006FEF7FE004C048EF5FEF60E070E08417D9
:1056A0009507A607B70730F0C8010E949D1E81111B
:1056B0004ACF26CFF80186839783A087B18743CF4F
:1056C000E114F10429F5D8011A964D915D916D917F
:1056D0007C911D9753968D919D910D90BC91A02D1D
:1056E000481759076A077B0798F00E94802688238D
:1056F00009F406CF4092340250923502609236028D
:10570000709237028091E60781608093E60708C0B7
:1057100041E0C301B2010E94BB26882309F4F0CE08
:10572000D501F701EE5CF74FCF01880D991DE81701
:10573000F90719F02D912193FACFA80CB91C5ECF6F
:1057400053968D919D910D90BC91A02D8417950736
:10575000A607B70740F4F801438B548B658B768B13
:10576000848180688483D80114968C9183FD02C063
:10577000C10107C0C8010E94AD1C882309F4C0CE36
:10578000F7CF0F900F900F900F90DF91CF911F9157
:105790000F91FF90EF90DF90CF90BF90AF909F90D0
:1057A0008F907F906F905F904F903F902F900895D3
:1057B000CF93DF931F92CDB7DEB7698341E050E00E
:1057C000BE016F5F7F4F0E94482A0F90DF91CF91FB
:1057D000089596E0899FD0011124A45CB34F909660
:1057E0007C936E935F9791E091969C9391979091A3
:1057F000A80CE091A90CF091AA0C992339F03097EC
:1058000051F0811108C08091580C04C0309719F0F4
:105810005C968C911994089520917E0A90917D0A4E
:10582000213208F04AC080915A0A8111FCCF32E03F
:1058300030935A0A31E03093590A3FEF3093580AB7
:105840001092570A2093560AADE5BAE046E35AE0B3
:10585000FA013E2F341B321718F43D913193F9CFE2
:105860001092350A2091350A990F922B9093350AA0
:105870009091340A913061F41092340A9091350A73
:105880009093BB009091BC0093FDF8CF95EC01C0C4
:1058900095EE9093BC0090915A0A9230E1F390916A
:1058A000580A9F3F79F08091580A803241F08091E8
:1058B000580A803331F084E005C081E003C082E003
:1058C00001C083E010925C0A10927E0A10925B0A7B
:1058D00008958F929F92AF92BF92CF92DF92EF92F4
:1058E000FF92CF93DF93C82F87EC9BE09093330A0E
:1058F0008093320ACC2369F1C53010F080E00DC1ED
:1059000040E060E070E0CB010E94BB268823B1F349
:1059100020E1C29FC00111248E5D974FFC01E2542B
:10592000FE4F20812F7751F73C9640815181628153
:105930007381443651056105710500F33497C080C9
:10594000D180E280F380C114D104E104F10421F498
:10595000D5CFC12CD12C760140E0C701B6010E9401
:10596000BB26882359F280913D0890913E0881150D
:10597000924021F6A0914208AA2309F4BFCF60917A
:105980004008709141086115710509F4B7CF209165
:105990003F08222309F4B2CFA093E50B2093D70B45
:1059A00080E030E0E1E0F0E0C82FAF01082E02C057
:1059B000440F551F0A94E2F72417350741F0982F3A
:1059C0008F5F983089F789E08093E00B97CF8093C1
:1059D000E00B20914808309149082115310519F054
:1059E00040E050E008C0209156083091570840919F
:1059F0005808509159082093D80B3093D90B4093F5
:105A0000DA0B5093DB0B46015701860E971EA11C43
:105A1000B11C8092E60B9092E70BA092E80BB0923B
:105A2000E90BE0914308F0914408F093EC0BE0930C
:105A3000EB0BB0E00E947F5C860E971EA81EB91E7D
:105A40008092ED0B9092EE0BA092EF0BB092F00BC8
:105A500085E0EE0FFF1F8A95E1F7E150FE4FEF2F33
:105A6000FF27E6958E0E9F1EA11CB11C8092E10BB4
:105A70009092E20BA092E30BB092E40B20914508C8
:105A8000309146082115310521F0A90160E070E050
:105A900008C0409152085091530860915408709189
:105AA0005508D701C60188199909AA09BB09840FAD
:105AB000951FA61FB71F04C0B695A7959795879504
:105AC000CA95D2F78093DC0B9093DD0BA093DE0B8D
:105AD000B093DF0B853F2FE09207A105B10510F4CD
